:1000000033C0000044C0000042C0000040C00000F7
:100010003EC000003CC000003AC0000038C00000F4
:1000200036C0000034C0000032C0000030C0000004
:100030002EC000002CC000002AC0000028C0000014
:1000400026C0000024C0000022C0000020C0000024
:100050001EC000001CC000001AC0000018C0000034
:1000600016C0000014C0000011241FBECFEFD4E062
:10007000DEBFCDBF11E0A0E0B1E0E4E3F7E002C0F5
:1000800005900D92AC32B107D9F7A0D051C3B8CFCB
:100090008F929F92AF92BF92CF92DF92EF92FF9298
:1000A0006B017C0120E030E44CE156E469D14B0166
:1000B0005C0137D29B01AC01C501B401FCD020E04A
:1000C00030E040E251E4D1D22CD220E030E040E4F4
:1000D00052E4F2D0BDD1862FABD020E030E04AE729
:1000E00054E4C701B6014CD14B015C011AD29B010B
:1000F000AC01C501B401DFD020E030E040E251E4C2
:10010000B4D20FD220E030E040E452E4D5D0A0D108
:10011000862F8ED020E030E048EC52E4C701B601D3
:100120002FD14B015C01FDD19B01AC01C501B40194
:10013000C2D020E030E040E251E497D2F2D120E09A
:1001400030E040E452E4B8D083D1862F71D020E073
:1001500030E040E251E4C701B60112D14B015C012D
:10016000E0D19B01AC01C501B401A5D020E030E095
:1001700040E251E47AD220E030E040E452E49CD006
:1001800067D1862F55D08EE253D0C701B601C9D1B1
:100190009B01AC01C701B6018ED020E030E040E207
:1001A00051E463D2BED120E030E040E452E484D098
:1001B0004FD1862F3DD089E291E0FF90EF90DF9004
:1001C000CF90BF90AF909F908F9039C020D08AE0A1
:1001D00091E035D046D053D089E367D080E065D038
:1001E0004ED088E362D053D0C82F58D04CD06C2F5B
:1001F00070E080E090E058D14BDF2FE38DE093E09A
:10020000215080409040E1F700C00000E4CF109200
:10021000C5008CE08093C400E0ECF0E08081826057
:10022000808388E18093C10086E08093C2000895B6
:100230009091C00095FFFCCF8093C60008951F9356
:10024000CF93DF93EC0110E0FE01E10FF11D8081FF
:10025000882319F0EDDF1F5FF7CFDF91CF911F915A
:10026000089580E28093B800ECEBF0E08081846038
:10027000808308958091BC0087FFFCCF089584EAB5
:100280008093BC00F7CF84E98093BC00089584EC90
:100290008093BC00EFDF8091BB00089584E88093D9
:1002A000BC00E8DF8091BB0008958093BB0084E828
:1002B0008093BC00DFCF5058BB27AA270ED084C143
:1002C00075D130F07AD120F031F49F3F11F41EF453
:1002D0006AC10EF4E095E7FB37C1E92F86D180F3C0
:1002E000BA17620773078407950718F071F49EF533
:1002F000B5C10EF4E0950B2EBA2FA02D0B01B9015C
:1003000090010C01CA01A0011124FF27591B99F08B
:10031000593F50F4503E68F11A16F040A22F232F97
:10032000342F4427585FF3CF469537952795A795E7
:10033000F0405395C9F77EF41F16BA0B620B730B8E
:10034000840BBAF09150A1F0FF0FBB1F661F771FFF
:10035000881FC2F70EC0BA0F621F731F841F48F4B4
:10036000879577956795B795F7959E3F08F0B3CF3A
:100370009395880F08F09927EE0F97958795089524
:100380000CD022C11AD140F011D130F021F45F3FDE
:1003900019F0DAC0511163C106C127D198F399232E
:1003A000C9F35523B1F3951B550BBB27AA27621739
:1003B0007307840738F09F5F5F4F220F331F441F7E
:1003C000AA1FA9F333D00E2E3AF0E0E830D09150B6
:1003D0005040E695001CCAF729D0FE2F27D0660FA3
:1003E000771F881FBB1F261737074807AB07B0E8E2
:1003F00009F0BB0B802DBF01FF2793585F4F2AF0F8
:100400009E3F510568F0A0C02AC15F3FECF3983EC3
:10041000DCF3869577956795B795F7959F5FC9F754
:10042000880F911D9695879597F90895E1E0660FDD
:10043000771F881FBB1F621773078407BA0720F056
:10044000621B730B840BBA0BEE1F88F7E0950895BF
:10045000D4D088F09F5790F0B92F9927B751A0F0CA
:10046000D1F0660F771F881F991F1AF0BA95C9F748
:1004700012C0B13081F0F2D0B1E00895EFC0672F23
:10048000782F8827B85F39F0B93FCCF386957795F8
:100490006795B395D9F73EF49095809570956195E1
:1004A0007F4F8F4F9F4F0895E89409C097FB3EF40C
:1004B00090958095709561957F4F8F4F9F4F9923B1
:1004C000A9F0F92F96E9BB279395F695879577952F
:1004D0006795B795F111F8CFFAF4BB0F11F460FFEF
:1004E0001BC06F5F7F4F8F4F9F4F16C0882311F047
:1004F00096E911C0772321F09EE8872F762F05C05B
:10050000662371F096E8862F70E060E02AF09A95F5
:10051000660F771F881FDAF7880F9695879597F9EA
:10052000089585D080F09F3740F491110EF097C068
:1005300060E070E080E89FEB089526F41B16611DD3
:10054000711D811D07C021C097F99F6780E870E089
:1005500060E00895882371F4772321F09850872B69
:10056000762F07C0662311F499270DC09051862B72
:1005700070E060E02AF09A95660F771F881FDAF71F
:10058000880F9695879597F908959F3F31F0915080
:1005900020F4879577956795B795880F911D969567
:1005A000879597F908959FEF80EC089500240A94A9
:1005B0001616170618060906089500240A9412163E
:1005C0001306140605060895092E0394000C11F471
:1005D000882352F0BB0F40F4BF2B11F460FF04C01E
:1005E0006F5F7F4F8F4F9F4F089557FD9058440F77
:1005F000551F59F05F3F71F04795880F97FB991F82
:1006000061F09F3F79F0879508951216130614063E
:10061000551FF2CF4695F1DF08C0161617061806CB
:10062000991FF1CF86957105610508940895E5DF5E
:10063000A0F0BEE7B91788F4BB279F3860F4161600
:10064000B11D672F782F8827985FF7CF869577950C
:100650006795B11D93959639C8F30895E894BB2723
:1006600066277727CB0197F908950BD0ADCF9EDF92
:1006700028F0A3DF18F0952309F066CF94CF11245A
:10068000EECFB3DFA0F3959FD1F3950F50E0551F48
:10069000629FF001729FBB27F00DB11D639FAA27D7
:1006A000F00DB11DAA1F649F6627B00DA11D661F26
:1006B000829F2227B00DA11D621F739FB00DA11D47
:1006C000621F839FA00D611D221F749F3327A00D01
:1006D000611D231F849F600D211D822F762F6A2F9D
:1006E00011249F5750408AF0E1F088234AF0EE0F22
:1006F000FF1FBB1F661F771F881F91505040A9F72F
:100700009E3F510570F020CFAACF5F3FECF3983E9B
:10071000DCF3869577956795B795F795E7959F5F95
:10072000C1F7FE2B880F911D9695879597F908952F
:04073000F894FFCF6B
:1007340020430D0A0020460D0A000D0A3D3D3D3DB3
:10074400202069326320416363656C65726F6D6557
:0C07540074657220203D3D3D3D0D0A0003
:00000001FF
