:1000000060C0000071C000006FC000006DC0000043
:100010006BC0000069C0000067C0000065C0000040
:1000200063C0000061C000005FC000005DC0000050
:100030005BC0000059C0000057C0000055C0000060
:1000400053C0000051C000004FC000004DC0000070
:100050004BC000006EC0000047C0000045C000005B
:1000600043C0000041C0000008000000BE922449C7
:10007000123EABAAAA2ABECDCCCC4C3E00000080DA
:10008000BEABAAAAAA3E00000000BF000000803F4D
:100090000000000000084178D3BB4387D1133D190D
:1000A0000E3CC3BD4282AD2B3E68EC8276BED98F3A
:1000B000E1A93E4C80EFFFBE01C4FF7F3F0000007E
:1000C000000011241FBECFEFD4E0DEBFCDBF11E092
:1000D000A0E0B1E0E2E5FDE002C005900D92A2349F
:1000E000B107D9F720D333C68BCF009721F0019702
:1000F00029F482E001C083E080937C0080917C0041
:10010000806C80937C0080917A00866080937A0076
:1001100080917A00806880937A00089583B7817F08
:10012000826083BFEAE7F0E0808188608083789412
:100130000895189540E180E090E023B7216023BF47
:10014000889523B72E7F23BF2091780030917900C6
:10015000820F931F415089F79695879596958795BD
:1001600008958F929F92AF92BF92CF92DF92EF92BB
:10017000FF9220E030E040E85EE361D56B017C0156
:1001800020E030E44CE156E4A0D34B015C016ED496
:100190009B01AC01C501B40133D320E030E040E263
:1001A00051E44DD563D420E030E040E452E429D35B
:1001B000F4D3862F0CD320E030E04AE754E4C701A3
:1001C000B60183D34B015C0151D49B01AC01C50145
:1001D000B40116D320E030E040E251E430D546D4FB
:1001E00020E030E040E452E40CD3D7D3862FEFD2A6
:1001F00020E030E048EC52E4C701B60166D34B0181
:100200005C0134D49B01AC01C501B401F9D220E0FA
:1002100030E040E251E413D529D420E030E040E45E
:1002200052E4EFD2BAD3862FD2D220E030E040E2BF
:1002300051E4C701B60149D34B015C0117D49B01BE
:10024000AC01C501B401DCD220E030E040E251E471
:10025000F6D420E030E040E452E4D3D29ED3862F9F
:10026000B6D28EE2B4D2C701B60100D49B01AC0174
:10027000C701B601C5D220E030E040E251E4DFD44E
:10028000F5D320E030E040E452E4BBD286D3862FA1
:100290009ED28FE191E0FF90EF90DF90CF90BF90E2
:1002A000AF909F908F909AC28F929F92AF92BF9281
:1002B000CF92DF92EF92FF9220E030E040E85EE3E1
:1002C000BED429E030EF4CE85AE3B9D46B017C018D
:1002D0009B01AC016DEC7CEC8CE89FE3F6D24B010A
:1002E0005C0120E030E44CE156E4C701B601A7D43C
:1002F0002DEC3CEC4CE85FE3E8D29B01AC0160E004
:1003000070E48CE196E47CD29B01AC01C501B401A0
:1003100096D46B017C0120E030E543EC57E4D5D264
:100320004B015C01A3D39B01AC01C501B40168D2B0
:1003300020E030E040E251E482D498D320E030E085
:1003400040E452E45ED229D3862F41D220E030E44B
:100350004CE156E4C701B601B8D24B015C0186D32B
:100360009B01AC01C501B4014BD220E030E040E27A
:1003700051E465D47BD320E030E040E452E441D244
:100380000CD3862F24D220E030E04AE754E4C701A2
:10039000B6019BD24B015C0169D39B01AC01C50145
:1003A000B4012ED220E030E040E251E448D45ED3E4
:1003B00020E030E040E452E424D2EFD2862F07D28E
:1003C00020E030E048EC52E4C701B6017ED24B0198
:1003D0005C014CD39B01AC01C501B40111D220E0FA
:1003E00030E040E251E42BD441D320E030E040E45F
:1003F00052E407D2D2D2862FEAD120E030E040E2A8
:1004000051E4C701B60161D24B015C012FD39B01BE
:10041000AC01C501B401F4D120E030E040E251E488
:100420000ED420E030E040E452E4EBD1B6D2862F87
:10043000CED18EE2CCD1C701B60118D39B01AC015D
:10044000C701B601DDD120E030E040E251E4F7D34E
:100450000DD320E030E040E452E4D3D19ED2862F89
:10046000B6D18FE191E0BAD1C701B601FF90EF900C
:10047000DF90CF90BF90AF909F908F9008958F9214
:100480009F92AF92BF92CF92DF92EF92FF9220E0C5
:1004900030E44CE156E419D292D32CE734ED43E832
:1004A00059E3CDD32FE03FEC4BE55BE3AAD19B01B1
:1004B000AC0160E070E080E89FE307D223E333E91A
:1004C00048E853E49DD16B017C0120E030E048EC2A
:1004D00052E4FBD14B015C01C9D29B01AC01C501C7
:1004E000B4018ED120E030E040E251E4A8D3BED286
:1004F00020E030E040E452E484D14FD2862F67D12F
:1005000020E030E040E251E4C701B601DED14B010A
:100510005C01ACD29B01AC01C501B40171D120E0FA
:1005200030E040E251E48BD320E030E040E452E49C
:1005300068D133D2862F4BD18EE249D1C701B601A3
:1005400095D29B01AC01C701B6015AD120E030E041
:1005500040E251E474D38AD220E030E040E452E437
:1005600050D11BD2862F33D120E030E040E251E45D
:10057000C701B60164D34B015C0178D29B01AC0189
:10058000C501B4013DD120E030E040E251E457D351
:100590006DD220E030E040E452E433D1FED1862F2A
:1005A00016D120E030E048EC52E4C701B60147D351
:1005B0004B015C015BD29B01AC01C501B40120D1B0
:1005C00020E030E040E251E43AD350D220E030E085
:1005D00040E452E416D1E1D1862FF9D080E091E0D9
:1005E000FDD026E636E646EE5FE3C701B60127D327
:1005F00020E030E040E052E404D16B017C0120E0D7
:1006000030E048EC52E461D14B015C012FD29B01F8
:10061000AC01C501B401F4D020E030E040E251E487
:100620000ED324D220E030E040E452E4EAD0B5D149
:10063000862FCDD020E030E040E251E4C701B60182
:1006400044D14B015C0112D29B01AC01C501B40144
:10065000D7D020E030E040E251E4F1D220E030E0B9
:1006600040E452E4CED099D1862FB1D08EE2AFD003
:10067000C701B601FBD19B01AC01C701B601C0D0D7
:1006800020E030E040E251E4DAD2F0D120E030E086
:1006900040E452E4B6D081D1862F99D020E030E0FA
:1006A00040E251E4C701B601CAD24B015C01DED180
:1006B0009B01AC01C501B401A3D020E030E040E2D1
:1006C00051E4BDD2D3D120E030E040E452E499D0EF
:1006D00064D1862F7CD020E030E048EC52E4C701A2
:1006E000B601ADD26B017C01C1D19B01AC01C70148
:1006F000B60186D020E030E040E251E4A0D2B6D18D
:1007000020E030E040E452E47CD047D1862F5FD037
:1007100085E091E0FF90EF90DF90CF90BF90AF9099
:100720009F908F905BC042D0F9DC8AE091E056D078
:1007300080E090E0DADCFEDCBC0180E090E059D1A2
:100740006B017C0182E291E049D0C701B60109DD6D
:10075000C701B601A9DD93DE8FE191E03FD087EAC2
:1007600091E60197F1F700C0000081E090E0BDDC68
:10077000E1DCBC0180E090E03CD16B017C0182E3D4
:1007800091E02CD0C701B601ECDCC701B6018CDDCD
:1007900076DE8FE191E022D09FE121EA87E091505F
:1007A00020408040E1F700C00000C2CF1092C50099
:1007B0008CE08093C400E0ECF0E080818260808374
:1007C00088E18093C10086E08093C20008959091F3
:1007D000C00095FFFCCF8093C60008951F93CF9370
:1007E000DF93EC0110E0FE01E10FF11D8081882311
:1007F00019F0EDDF1F5FF7CFDF91CF911F910895C3
:100800005058BB27AA270ED084C175D130F07AD1B9
:1008100020F031F49F3F11F41EF46AC10EF4E0950C
:10082000E7FB37C1E92F86D180F3BA176207730758
:100830008407950718F071F49EF5B5C10EF4E095A4
:100840000B2EBA2FA02D0B01B90190010C01CA018A
:10085000A0011124FF27591B99F0593F50F4503E35
:1008600068F11A16F040A22F232F342F4427585F27
:10087000F3CF469537952795A795F0405395C9F73F
:100880007EF41F16BA0B620B730B840BBAF09150F7
:10089000A1F0FF0FBB1F661F771F881FC2F70EC096
:1008A000BA0F621F731F841F48F487957795679569
:1008B000B795F7959E3F08F0B3CF9395880F08F052
:1008C0009927EE0F9795879508950CD022C11AD1DC
:1008D00040F011D130F021F45F3F19F0DAC051112E
:1008E00063C106C127D198F39923C9F35523B1F306
:1008F000951B550BBB27AA2762177307840738F08F
:100900009F5F5F4F220F331F441FAA1FA9F333D0ED
:100910000E2E3AF0E0E830D091505040E695001CA1
:10092000CAF729D0FE2F27D0660F771F881FBB1F5D
:10093000261737074807AB07B0E809F0BB0B802D37
:10094000BF01FF2793585F4F2AF09E3F510568F083
:10095000A0C02AC15F3FECF3983EDCF38695779503
:100960006795B795F7959F5FC9F7880F911D969585
:10097000879597F90895E1E0660F771F881FBB1FE1
:10098000621773078407BA0720F0621B730B840B8E
:10099000BA0BEE1F88F7E0950895D4D088F09F57E2
:1009A00090F0B92F9927B751A0F0D1F0660F771FBB
:1009B000881F991F1AF0BA95C9F712C0B13081F09B
:1009C000F2D0B1E00895EFC0672F782F8827B85F85
:1009D00039F0B93FCCF3869577956795B395D9F7FC
:1009E0003EF490958095709561957F4F8F4F9F4F06
:1009F0000895E89409C097FB3EF490958095709512
:100A000061957F4F8F4F9F4F9923A9F0F92F96E95A
:100A1000BB279395F695879577956795B795F111CF
:100A2000F8CFFAF4BB0F11F460FF1BC06F5F7F4F6C
:100A30008F4F9F4F16C0882311F096E911C077237E
:100A400021F09EE8872F762F05C0662371F096E887
:100A5000862F70E060E02AF09A95660F771F881F56
:100A6000DAF7880F9695879597F9089585D080F0E5
:100A70009F3740F491110EF097C060E070E080E87D
:100A80009FEB089526F41B16611D711D811D07C083
:100A900021C097F99F6780E870E060E0089588239F
:100AA00071F4772321F09850872B762F07C06623A7
:100AB00011F499270DC09051862B70E060E02AF068
:100AC0009A95660F771F881FDAF7880F9695879596
:100AD00097F908959F3F31F0915020F487957795CD
:100AE0006795B795880F911D9695879597F9089505
:100AF0009FEF80EC089500240A9416161706180636
:100B00000906089500240A94121613061406050611
:100B10000895092E0394000C11F4882352F0BB0FA2
:100B200040F4BF2B11F460FF04C06F5F7F4F8F4F05
:100B30009F4F089557FD9058440F551F59F05F3F40
:100B400071F04795880F97FB991F61F09F3F79F0EF
:100B500087950895121613061406551FF2CF469571
:100B6000F1DF08C0161617061806991FF1CF8695F3
:100B70007105610508940895E5DFA0F0BEE7B91797
:100B800088F4BB279F3860F41616B11D672F782FA5
:100B90008827985FF7CF869577956795B11D9395D0
:100BA0009639C8F30895E894BB2766277727CB01C9
:100BB00097F908950EF08ECF9BCF68946ACFC2DF6D
:100BC000C8F39923D1F3C6F3DF93CF931F930F9309
:100BD000FF92C92FDD2788232AF02197660F771F00
:100BE000881FDAF720E030E040E85FEB9FE38839C8
:100BF00020F0803E30F021968F7703DEE8E6F0E0CB
:100C000003C0FFDDE5E9F0E07DD08B01BE01EC0122
:100C1000FB2E6F5771097595771F880B990BEBDECB
:100C200028E132E741E35FE316D0AF2D9801AE0132
:100C3000FF900F911F91CF91DF91F4DD6ACF0BD020
:100C400068CF59DF28F05EDF18F0952309F021CF37
:100C50004FCF1124A9CF6EDFA0F3959FD1F3950F4D
:100C600050E0551F629FF001729FBB27F00DB11D30
:100C7000639FAA27F00DB11DAA1F649F6627B00DC0
:100C8000A11D661F829F2227B00DA11D621F739FA9
:100C9000B00DA11D621F839FA00D611D221F749FB7
:100CA0003327A00D611D231F849F600D211D822FFE
:100CB000762F6A2F11249F5750408AF0E1F0882345
:100CC0004AF0EE0FFF1FBB1F661F771F881F915052
:100CD0005040A9F79E3F510570F0DBCE65CF5F3FD6
:100CE000ECF3983EDCF3869577956795B795F79585
:100CF000E7959F5FC1F7FE2B880F911D969587950D
:100D000097F90895DF93CF931F930F93FF92EF927C
:100D1000DF927B018C01689405C0DA2EEF019BDF26
:100D2000FE01E894A5912591359145915591AEF339
:100D3000EF0178DDFE019701A801DA9479F7DF90E1
:100D4000EF90FF900F911F91CF91DF910895F8944C
:020D5000FFCFD3
:100D520020430D0A0020460D0A000D0A4469676906
:100D620074616C20566F6C746D657465720D0A0D3A
:100D72000A00546865726D6973746F7220313A0D9E
:100D82000A00546865726D6973746F7220323A0D8D
:020D92000A0055
:00000001FF
