:1000000060C0000071C000006FC000006DC0000043
:100010006BC0000069C0000067C0000065C0000040
:1000200063C0000061C000005FC000005DC0000050
:100030005BC0000059C0000057C0000055C0000060
:1000400053C0000051C000004FC000004DC0000070
:100050004BC0000066C0000047C0000045C0000063
:1000600043C0000041C0000008000000BE922449C7
:10007000123EABAAAA2ABECDCCCC4C3E00000080DA
:10008000BEABAAAAAA3E00000000BF000000803F4D
:100090000000000000084178D3BB4387D1133D190D
:1000A0000E3CC3BD4282AD2B3E68EC8276BED98F3A
:1000B000E1A93E4C80EFFFBE01C4FF7F3F0000007E
:1000C000000011241FBECFEFD4E0DEBFCDBF11E092
:1000D000A0E0B1E0E0E5FEE002C005900D92A232A2
:1000E000B107D9F7C0D3B2C68BCFECE7F0E080817F
:1000F00083608083808180648083EAE7F0E0808190
:1001000086608083808180688083089583B7817F43
:10011000826083BFEAE7F0E0808188608083789422
:100120000895189540E180E090E023B7216023BF57
:10013000889523B72E7F23BF2091780030917900D6
:10014000820F931F415089F79695879596958795CD
:1001500008958F929F92AF92BF92CF92DF92EF92CB
:10016000FF9220E030E040E85EE3E8D56B017C01DF
:1001700020E030E44CE156E427D44B015C01F5D497
:100180009B01AC01C501B401BAD320E030E040E2EC
:1001900051E4D4D5EAD420E030E040E452E4B0D3D6
:1001A0007BD4862F93D320E030E04AE754E4C701A4
:1001B000B6010AD44B015C01D8D49B01AC01C50146
:1001C000B4019DD320E030E040E251E4B7D5CDD476
:1001D00020E030E040E452E493D35ED4862F76D31F
:1001E00020E030E048EC52E4C701B601EDD34B010A
:1001F0005C01BBD49B01AC01C501B40180D320E0FC
:1002000030E040E251E49AD5B0D420E030E040E460
:1002100052E476D341D4862F59D320E030E040E237
:1002200051E4C701B601D0D34B015C019ED49B01C0
:10023000AC01C501B40163D320E030E040E251E4F9
:100240007DD520E030E040E452E45AD325D4862F17
:100250003DD38EE23BD3C701B60187D49B01AC01ED
:10026000C701B6014CD320E030E040E251E466D54E
:100270007CD420E030E040E452E442D30DD4862F19
:1002800025D38FE191E0FF90EF90DF90CF90BF906A
:10029000AF909F908F9021C38F929F92AF92BF9209
:1002A000CF92DF92EF92FF9220E030E040E85EE3F1
:1002B00045D52DE038E643E55BE340D56B017C0195
:1002C00020E030E040E251E47FD34B015C014DD4AB
:1002D0009B01AC01C501B40112D320E030E040E243
:1002E00051E42CD520E030E040E452E409D3D4D3EB
:1002F000862FECD28EE2EAD2C701B60136D49B013A
:10030000AC01C701B601FBD220E030E040E251E48D
:1003100015D52BD420E030E040E452E4F1D2BCD338
:10032000862FD4D220E030E040E251E4C701B6018C
:1003300005D54B015C0119D49B01AC01C501B40189
:10034000DED220E030E040E251E4F8D40ED420E0E8
:1003500030E040E452E4D4D29FD3862FB7D220E0DD
:1003600030E048EC52E4C701B601E8D44B015C012F
:10037000FCD39B01AC01C501B401C1D220E030E047
:1003800040E251E4DBD4F1D320E030E040E452E439
:10039000B7D282D3862F9AD220E030E04AE754E4E5
:1003A000C701B601CBD46B017C01DFD39B01AC014B
:1003B000C701B601A4D220E030E040E251E4BED44F
:1003C000D4D320E030E040E452E49AD265D3862FC3
:1003D0007DD28FE191E0FF90EF90DF90CF90BF90C2
:1003E000AF909F908F9079C28F929F92AF92BF9261
:1003F000CF92DF92EF92FF9220E030E040E85EE3A0
:100400009DD42DE038E643E55BE398D46B017C0195
:100410009B01AC0163E373E383E590E4D5D24B0128
:100420005C0120E030E44CE156E4C701B60186D41B
:1004300023E333E343E550E4C7D29B01AC0160E022
:1004400070E48CE196E45BD29B01AC01C501B40180
:1004500075D46B017C0120E030E543EC57E4B4D265
:100460004B015C0182D39B01AC01C501B40147D2B1
:1004700020E030E040E251E461D477D320E030E086
:1004800040E452E43DD208D3862F20D220E030E46D
:100490004CE156E4C701B60197D24B015C0165D32C
:1004A0009B01AC01C501B4012AD220E030E040E25A
:1004B00051E444D45AD320E030E040E452E420D266
:1004C000EBD2862F03D220E030E04AE754E4C701A4
:1004D000B6017AD24B015C0148D39B01AC01C50146
:1004E000B4010DD220E030E040E251E427D43DD306
:1004F00020E030E040E452E403D2CED2862FE6D1B1
:1005000020E030E048EC52E4C701B6015DD24B0177
:100510005C012BD39B01AC01C501B401F0D120E0FB
:1005200030E040E251E40AD420D320E030E040E45F
:1005300052E4E6D1B1D2862FC9D120E030E040E2CA
:1005400051E4C701B60140D24B015C010ED39B01BF
:10055000AC01C501B401D3D120E030E040E251E468
:10056000EDD320E030E040E452E4CAD195D2862FAA
:10057000ADD18EE2ABD1C701B601F7D29B01AC0180
:10058000C701B601BCD120E030E040E251E4D6D34F
:10059000ECD220E030E040E452E4B2D17DD2862FAC
:1005A00095D18FE191E099D1C701B601FF90EF900D
:1005B000DF90CF90BF90AF909F908F9008958F92D3
:1005C0009F92AF92BF92CF92DF92EF92FF9220E084
:1005D00030E44CE156E4F8D171D32CE734ED43E834
:1005E00059E3ACD32FE03FEC4BE55BE389D19B01B2
:1005F000AC0160E070E080E89FE3E6D123E333E9FB
:1006000048E853E47CD16B017C0120E030E048EC09
:1006100052E4DAD14B015C01A8D29B01AC01C501C7
:10062000B4016DD120E030E040E251E487D39DD2A7
:1006300020E030E040E452E463D12ED2862F46D150
:1006400020E030E040E251E4C701B601BDD14B01EA
:100650005C018BD29B01AC01C501B40150D120E0FB
:1006600030E040E251E46AD320E030E040E452E47C
:1006700047D112D2862F2AD18EE228D1C701B601E6
:1006800074D29B01AC01C701B60139D120E030E042
:1006900040E251E453D369D220E030E040E452E438
:1006A0002FD1FAD1862F12D120E030E040E251E480
:1006B000C701B60143D34B015C0157D29B01AC018A
:1006C000C501B4011CD120E030E040E251E436D352
:1006D0004CD220E030E040E452E412D1DDD1862F4C
:1006E000F5D020E030E048EC52E4C701B60126D353
:1006F0004B015C013AD29B01AC01C501B401FFD0B2
:1007000020E030E040E251E419D32FD220E030E085
:1007100040E452E4F5D0C0D1862FD8D080E091E0FB
:10072000DCD026E636E646EE5FE3C701B60106D327
:1007300020E030E040E052E4E3D06B017C0120E0B7
:1007400030E048EC52E440D14B015C010ED29B01F9
:10075000AC01C501B401D3D020E030E040E251E467
:10076000EDD203D220E030E040E452E4C9D094D18D
:10077000862FACD020E030E040E251E4C701B60162
:1007800023D14B015C01F1D19B01AC01C501B40146
:10079000B6D020E030E040E251E4D0D220E030E0BA
:1007A00040E452E4ADD078D1862F90D08EE28ED046
:1007B000C701B601DAD19B01AC01C701B6019FD0D8
:1007C00020E030E040E251E4B9D2CFD120E030E087
:1007D00040E452E495D060D1862F78D020E030E01C
:1007E00040E251E4C701B601A9D24B015C01BDD181
:1007F0009B01AC01C501B40182D020E030E040E2B1
:1008000051E49CD2B2D120E030E040E452E478D010
:1008100043D1862F5BD020E030E048EC52E4C701A2
:10082000B6018CD26B017C01A0D19B01AC01C70148
:10083000B60165D020E030E040E251E47FD295D1AE
:1008400020E030E040E452E45BD026D1862F3ED059
:1008500085E091E0FF90EF90DF90CF90BF90AF9058
:100860009F908F903AC021D08AE091E036D03DDC55
:100870004DDC58DCBC0180E090E03AD16B017C019A
:1008800068DCC701B60108DDC701B601ADDD97DE42
:100890008FE191E022D02FE78AE196E0215080405D
:1008A0009040E1F700C00000E4CF1092C5008CE05A
:1008B0008093C400E0ECF0E080818260808388E176
:1008C0008093C10086E08093C20008959091C0009B
:1008D00095FFFCCF8093C60008951F93CF93DF93BD
:1008E000EC0110E0FE01E10FF11D8081882319F079
:1008F000EDDF1F5FF7CFDF91CF911F910895505823
:10090000BB27AA270ED084C175D130F07AD120F050
:1009100031F49F3F11F41EF46AC10EF4E095E7FB39
:1009200037C1E92F86D180F3BA17620773078407AE
:10093000950718F071F49EF5B5C10EF4E0950B2EF5
:10094000BA2FA02D0B01B90190010C01CA01A00121
:100950001124FF27591B99F0593F50F4503E68F17C
:100960001A16F040A22F232F342F4427585FF3CFBD
:10097000469537952795A795F0405395C9F77EF48E
:100980001F16BA0B620B730B840BBAF09150A1F0D7
:10099000FF0FBB1F661F771F881FC2F70EC0BA0F5D
:1009A000621F731F841F48F4879577956795B795E5
:1009B000F7959E3F08F0B3CF9395880F08F09927DD
:1009C000EE0F9795879508950CD022C11AD140F06B
:1009D00011D130F021F45F3F19F0DAC0511163C139
:1009E00006C127D198F39923C9F35523B1F3951B79
:1009F000550BBB27AA2762177307840738F09F5F40
:100A00005F4F220F331F441FAA1FA9F333D00E2EAE
:100A10003AF0E0E830D091505040E695001CCAF71B
:100A200029D0FE2F27D0660F771F881FBB1F2617E0
:100A300037074807AB07B0E809F0BB0B802DBF01B3
:100A4000FF2793585F4F2AF09E3F510568F0A0C0E2
:100A50002AC15F3FECF3983EDCF386957795679566
:100A6000B795F7959F5FC9F7880F911D9695879564
:100A700097F90895E1E0660F771F881FBB1F621783
:100A800073078407BA0720F0621B730B840BBA0B41
:100A9000EE1F88F7E0950895D4D088F09F5790F026
:100AA000B92F9927B751A0F0D1F0660F771F881F93
:100AB000991F1AF0BA95C9F712C0B13081F0F2D07F
:100AC000B1E00895EFC0672F782F8827B85F39F01D
:100AD000B93FCCF3869577956795B395D9F73EF4F2
:100AE00090958095709561957F4F8F4F9F4F08959A
:100AF000E89409C097FB3EF49095809570956195B8
:100B00007F4F8F4F9F4F9923A9F0F92F96E9BB276D
:100B10009395F695879577956795B795F111F8CFE9
:100B2000FAF4BB0F11F460FF1BC06F5F7F4F8F4F54
:100B30009F4F16C0882311F096E911C0772321F04A
:100B40009EE8872F762F05C0662371F096E8862FE2
:100B500070E060E02AF09A95660F771F881FDAF739
:100B6000880F9695879597F9089585D080F09F37DF
:100B700040F491110EF097C060E070E080E89FEBC8
:100B8000089526F41B16611D711D811D07C021C02B
:100B900097F99F6780E870E060E00895882371F41A
:100BA000772321F09850872B762F07C0662311F406
:100BB00099270DC09051862B70E060E02AF09A953D
:100BC000660F771F881FDAF7880F9695879597F934
:100BD00008959F3F31F0915020F487957795679560
:100BE000B795880F911D9695879597F908959FEF72
:100BF00080EC089500240A941616170618060906B4
:100C0000089500240A941216130614060506089582
:100C1000092E0394000C11F4882352F0BB0F40F40A
:100C2000BF2B11F460FF04C06F5F7F4F8F4F9F4F4A
:100C3000089557FD9058440F551F59F05F3F71F0CC
:100C40004795880F97FB991F61F09F3F79F0879533
:100C50000895121613061406551FF2CF4695F1DFBC
:100C600008C0161617061806991FF1CF869571054C
:100C7000610508940895E5DFA0F0BEE7B91788F490
:100C8000BB279F3860F41616B11D672F782F882771
:100C9000985FF7CF869577956795B11D93959639AF
:100CA000C8F30895E894BB2766277727CB0197F907
:100CB00008950EF08ECF9BCF68946ACFC2DFC8F341
:100CC0009923D1F3C6F3DF93CF931F930F93FF9232
:100CD000C92FDD2788232AF02197660F771F881FE9
:100CE000DAF720E030E040E85FEB9FE3883920F05E
:100CF000803E30F021968F7703DEE8E6F0E003C017
:100D0000FFDDE5E9F0E07DD08B01BE01EC01FB2EBB
:100D10006F5771097595771F880B990BEBDE28E1EA
:100D200032E741E35FE316D0AF2D9801AE01FF90AB
:100D30000F911F91CF91DF91F4DD6ACF0BD068CF77
:100D400059DF28F05EDF18F0952309F021CF4FCF4F
:100D50001124A9CF6EDFA0F3959FD1F3950F50E03A
:100D6000551F629FF001729FBB27F00DB11D639F5D
:100D7000AA27F00DB11DAA1F649F6627B00DA11D03
:100D8000661F829F2227B00DA11D621F739FB00DA9
:100D9000A11D621F839FA00D611D221F749F332719
:100DA000A00D611D231F849F600D211D822F762FB2
:100DB0006A2F11249F5750408AF0E1F088234AF0AF
:100DC000EE0FFF1FBB1F661F771F881F91505040FB
:100DD000A9F79E3F510570F0DBCE65CF5F3FECF386
:100DE000983EDCF3869577956795B795F795E795E7
:100DF0009F5FC1F7FE2B880F911D9695879597F9F8
:100E00000895DF93CF931F930F93FF92EF92DF929A
:100E10007B018C01689405C0DA2EEF019BDFFE0197
:100E2000E894A5912591359145915591AEF3EF0147
:100E300078DDFE019701A801DA9479F7DF90EF9051
:100E4000FF900F911F91CF91DF910895F894FFCFFC
:100E500020430D0A0020460D0A000D0A4469676907
:100E600074616C20566F6C746D657465720D0A0D3B
:020E70000A0076
:00000001FF
