:1000000033C0000044C0000042C0000040C00000F7
:100010003EC000003CC000003AC0000038C00000F4
:1000200036C0000034C0000032C0000030C0000004
:100030002EC000002CC000002AC0000028C0000014
:1000400026C0000024C0000022C0000020C0000024
:100050001EC0000071C000001AC0000018C00000DF
:1000600016C0000014C0000011241FBECFEFD4E062
:10007000DEBFCDBF11E0A0E0B1E0E8EAFBE002C0E6
:1000800005900D92AA32B107D9F784D28BC5B8CFAB
:10009000ECEBF0E080818F70806C80830895BC0170
:1000A0008091B9008E7F8093B9008091B9008D7FD7
:1000B0008093B9008AEF90E0FCD2862F603130F057
:1000C000CB01409797FD0196959587958093B80051
:1000D000089584E690E0E3DFECEBF0E0808184605B
:1000E000808308953C9A84EA8093BC0008958BE550
:1000F00090E02091BC0027FD03C001970097C9F74D
:100100000895009759F02AE5000000000000000063
:10011000000000002150C1F70197F3CF0895CF935D
:10012000C82F81E090E0EDDF3C9AC093BB0084E8EB
:100130008093BC00CF91089518958F929F92AF92B3
:10014000BF92CF92DF92EF92FF926B017C0120E091
:1001500030E040E251E42AD34B015C01F8D39B012B
:10016000AC01C501B401B9D220E030E040E251E475
:10017000B6D420E030E040E452E4B0D27FD3862F02
:100180007FD28EE27DD2C701B601E1D39B01AC01E3
:10019000C701B601A2D220E030E040E251E49FD492
:1001A000D6D320E030E040E452E498D267D3862FE3
:1001B00067D220E030E040E251E4C701B6018FD4BD
:1001C0004B015C01C4D39B01AC01C501B40185D2D4
:1001D00020E030E040E251E482D4B9D320E030E0C6
:1001E00040E452E47BD24AD3862F4AD220E030E06A
:1001F00048EC52E4C701B60172D44B015C01A7D3AD
:100200009B01AC01C501B40168D220E030E040E2BE
:1002100051E465D49CD320E030E040E452E45ED267
:100220002DD3862F2DD220E030E04AE754E4C701D9
:10023000B60155D46B017C018AD39B01AC01C70187
:10024000B6014BD220E030E040E251E448D47FD305
:1002500020E030E040E452E441D210D3862F10D2A7
:1002600082E091E0FF90EF90DF90CF90BF90AF9051
:100270009F908F900CC2CF93C82F34DF38DF8AE372
:100280004EDF35DF8C2F4BDF32DF2CDF8BE347DF98
:100290002EDFFEDE2CDFC091BB0029DFECEBF0E0AF
:1002A00084E9808390819B7F908390819460908388
:1002B0008C2F90E0CF9108951F93CF93DF931F92DF
:1002C000CDB7DEB7182F69830DDF11DF8AE327DF93
:1002D0000EDF812F24DF0BDF6981862F20DF07DF10
:1002E00084E98093BC000F90DF91CF911F91089516
:1002F00060E48BE2E1CF8AE2BEDF682F6E7F8AE2A4
:10030000DBCF8AE2B8DF682F61608AE2D5CFF3DF06
:100310006FE08FE2D1DF60EF80E3CEDF60E081E36A
:10032000CBDFEFCF0F931F93CF93DF93EC018B01C4
:10033000E2DFC230D10531F0C430D10519F0C83048
:10034000D10531F4BE01759567957595679501C026
:1003500060E08EE0B1DF8AE28EDF682F677C8AE2A0
:10036000ABDF083011055CF48AE285DFB80143E0B9
:10037000660F771F4A95E1F7682B8AE29DDF60E4FC
:1003800089E29ADF8AE277DF682F6F738AE294DF6F
:100390008AE271DF682F606C8AE28EDF8BE26BDFAE
:1003A000682F677E8BE288DF8BE265DF682F6861EC
:1003B0008BE282DF8BE25FDF682F6B7F8BE27CDF7B
:1003C0008BE259DF682F64608BE276DF8CE253DFCB
:1003D000682F637C8CE270DF8CE24DDF682F6C63EA
:1003E0008CE26ADF8DE247DF682F6F778DE264DF92
:1003F0008DE241DF682F60688DE25EDF60E481E1BD
:100400005BDF60E582E158DF6FE781E255DF64E0A2
:1004100083E252DF64E084E24FDF64E085E24CDF98
:1004200060E386E249DF60EA87E246DF6FEF88E259
:1004300043DF68E585E140DF64E887E13DDF68E0B0
:1004400088E13ADF8CE217DF682F6D7F8CE234DFC2
:100450008CE211DF682F62608CE22EDF8DE20BDF11
:10046000682F627E8DE228DF8DE205DF682F6D61E7
:100470008DE222DF61E08EE21FDFDF91CF911F91DD
:100480000F913FCFCF92DF92EF92FF920F931F9386
:10049000CF93DF9300D0CDB7DEB7182F7B01498310
:1004A0005A8320DE24DE8AE33ADE21DE812F37DE26
:1004B0001EDE18DE8BE333DE1ADE4981C42E5A813C
:1004C000D52E00E010E00E151F0564F4E1DD0FDE0F
:1004D0008091BB0090E0F601819391936F010F5FD3
:1004E0001F4FF1CF04DE84E98093BC008091BC00F3
:1004F0008B7F8093BC008091BC0084608093BC00A3
:100500000F900F90DF91CF911F910F91FF90EF907F
:10051000DF90CF900895EF92FF920F931F93CF93A8
:10052000DF93CDB7DEB72C970FB6F894DEBF0FBEC2
:10053000CDBF7C01AE014F5F5F4F66E070E081E0B0
:1005400090E0A0DFFE01319640E050E0DA01AE7F9E
:10055000AE0DBF1D108100E022813381202B312B95
:1005600064E0359527956A95E1F72D933C934E5FAE
:100570005F4F34964630510549F72C960FB6F894E4
:10058000DEBF0FBECDBFDF91CF911F910F91FF90C6
:10059000EF900895CF93DF93CDB7DEB762970FB694
:1005A000F894DEBF0FBECDBF5AD093DD8DE063DE81
:1005B0008A3259F49DDE63E070E082E090E0B2DEC2
:1005C000A6DE8E010D5E1F4F40C08AE091E05FD035
:1005D000F8CFF701619171917F01882777FD8095B0
:1005E000982F7AD120E030E040E85AE378D2F60143
:1005F00061937193819391936F01E016F10649F72E
:10060000C980DA80EB80FC8020E030E0A901C701DE
:10061000B601C8D087FF0BC0F7FAF094F7F8F09452
:10062000C982DA82EB82FC8288E291E030D0698173
:100630007A818B819C8181DDFFE32DE083E0F150A5
:1006400020408040E1F700C00000CE010D9663DF3E
:10065000CE010D967C01FE0131966F01BACF10924A
:10066000C5008CE08093C400E0ECF0E08081826003
:10067000808388E18093C10086E08093C200089562
:100680009091C00095FFFCCF8093C60008951F9302
:10069000CF93DF93EC0110E0FE01E10FF11D8081AB
:1006A000882319F0EDDF1F5FF7CFDF91CF911F9106
:1006B0000895AA1BBB1B51E107C0AA1FBB1FA617A9
:1006C000B70710F0A61BB70B881F991F5A95A9F7FB
:1006D00080959095BC01CD0108955058BB27AA275D
:1006E0000ED0ACC19DD130F0A2D120F031F49F3FAB
:1006F00011F41EF492C10EF4E095E7FB5FC1E92FFF
:10070000AED180F3BA17620773078407950718F014
:1007100071F49EF5DDC10EF4E0950B2EBA2FA02DDD
:100720000B01B90190010C01CA01A0011124FF279E
:10073000591B99F0593F50F4503E68F11A16F04099
:10074000A22F232F342F4427585FF3CF4695379598
:100750002795A795F0405395C9F77EF41F16BA0B5D
:10076000620B730B840BBAF09150A1F0FF0FBB1F0B
:10077000661F771F881FC2F70EC0BA0F621F731F54
:10078000841F48F4879577956795B795F7959E3FB1
:1007900008F0B3CF9395880F08F09927EE0F97953F
:1007A00087950895E7D008F481E008950CD046C1FC
:1007B0003ED140F035D130F021F45F3F19F0FEC05A
:1007C000511187C12AC14BD198F39923C9F35523FD
:1007D000B1F3951B550BBB27AA2762177307840734
:1007E00038F09F5F5F4F220F331F441FAA1FA9F3EA
:1007F00033D00E2E3AF0E0E830D091505040E695DC
:10080000001CCAF729D0FE2F27D0660F771F881F3C
:10081000BB1F261737074807AB07B0E809F0BB0B2B
:10082000802DBF01FF2793585F4F2AF09E3F51054F
:1008300068F0C4C04EC15F3FECF3983EDCF3869590
:1008400077956795B795F7959F5FC9F7880F911DC5
:100850009695879597F90895E1E0660F771F881FB1
:10086000BB1F621773078407BA0720F0621B730B64
:10087000840BBA0BEE1F88F7E0950895F8D088F046
:100880009F5790F0B92F9927B751A0F0D1F0660F7C
:10089000771F881F991F1AF0BA95C9F712C0B13097
:1008A00081F016D1B1E0089513C1672F782F882702
:1008B000B85F39F0B93FCCF3869577956795B395D6
:1008C000D9F73EF490958095709561957F4F8F4F45
:1008D0009F4F0895E89409C097FB3EF4909580954A
:1008E000709561957F4F8F4F9F4F9923A9F0F92FF6
:1008F00096E9BB279395F695879577956795B79574
:10090000F111F8CFFAF4BB0F11F460FF1BC06F5F59
:100910007F4F8F4F9F4F16C0882311F096E911C06B
:10092000772321F09EE8872F762F05C0662371F08C
:1009300096E8862F70E060E02AF09A95660F771FA0
:10094000881FDAF7880F9695879597F90895A9D0AB
:1009500080F09F3740F491110EF0BBC060E070E072
:1009600080E89FEB089526F41B16611D711D811D03
:100970002BC045C0990F0008550FAA0BE0E8FEEF09
:1009800016161706E807F907C0F012161306E40753
:10099000F50798F0621B730B840B950B39F40A264C
:1009A00061F0232B242B252B21F408950A2609F42A
:1009B000A140A6958FEF811D811D089597F99F672E
:1009C00080E870E060E00895882371F4772321F0D7
:1009D0009850872B762F07C0662311F499270DC0F6
:1009E0009051862B70E060E02AF09A95660F771F91
:1009F000881FDAF7880F9695879597F908959F3F96
:100A000031F0915020F4879577956795B795880FC9
:100A1000911D9695879597F908959FEF80EC08951D
:100A200000240A94161617061806090608950024CD
:100A30000A9412161306140605060895092E039447
:100A4000000C11F4882352F0BB0F40F4BF2B11F4BB
:100A500060FF04C06F5F7F4F8F4F9F4F089557FD1A
:100A60009058440F551F59F05F3F71F04795880F1C
:100A700097FB991F61F09F3F79F0879508951216B3
:100A800013061406551FF2CF4695F1DF08C016165F
:100A900017061806991FF1CF869571056105089410
:100AA0000895E5DFA0F0BEE7B91788F4BB279F38AB
:100AB00060F41616B11D672F782F8827985FF7CF3F
:100AC000869577956795B11D93959639C8F30895E6
:100AD000E894BB2766277727CB0197F908950BD0B9
:100AE000ADCF9EDF28F0A3DF18F0952309F066CF85
:100AF00094CF1124EECFB3DFA0F3959FD1F3950FE0
:100B000050E0551F629FF001729FBB27F00DB11D91
:100B1000639FAA27F00DB11DAA1F649F6627B00D21
:100B2000A11D661F829F2227B00DA11D621F739F0A
:100B3000B00DA11D621F839FA00D611D221F749F18
:100B40003327A00D611D231F849F600D211D822F5F
:100B5000762F6A2F11249F5750408AF0E1F08823A6
:100B60004AF0EE0FFF1FBB1F661F771F881F9150B3
:100B70005040A9F79E3F510570F020CFAACF5F3FAC
:100B8000ECF3983EDCF3869577956795B795F795E6
:100B9000E7959F5FC1F7FE2B880F911D969587956E
:080BA00097F90895F894FFCFC6
:100BA80020430D0A0020460D0A00436F756C64202F
:100BB8006E6F7420636F6E6E65637420746F204D62
:0A0BC8004D413834353251002D0044
:00000001FF
