:1000000033C0000044C0000042C0000040C00000F7
:100010003EC000003CC000003AC0000038C00000F4
:1000200036C0000034C0000032C0000030C0000004
:100030002EC000002CC000002AC0000028C0000014
:1000400026C0000024C0000022C0000020C0000024
:100050001EC000001CC000001AC0000018C0000034
:1000600016C0000014C0000011241FBECFEFD4E062
:10007000DEBFCDBF11E0A0E0B1E0ECE0F1E002C0F6
:1000800005900D92A031B107D9F702D03DC0B8CF8D
:100090008FEF84B908D080E091E024D01CD0C82F25
:1000A00013D0C5B9FBCF1092C5008CE08093C4007B
:1000B000E0ECF0E080818260808388E18093C10081
:1000C00086E08093C20008959091C00095FFFCCF18
:1000D0008093C60008958091C00087FFFCCF809177
:1000E000C60008951F93CF93DF93EC0110E0FE014B
:1000F000E10FF11D8081882319F0E6DF1F5FF7CF44
:0C010000DF91CF911F910895F894FFCF7C
:10010C0048656C6C6F20576F726C64210D0A00008F
:00000001FF
