:1000000033C0000044C0000042C0000040C00000F7
:100010003EC000003CC000003AC0000038C00000F4
:1000200036C0000034C0000032C0000030C0000004
:100030002EC000002CC000002AC0000028C0000014
:1000400026C0000024C0000022C0000020C0000024
:100050001EC000001CC000001AC0000018C0000034
:1000600016C0000014C0000011241FBECFEFD4E062
:10007000DEBFCDBF11E0A0E0B1E0E8EDF1E002C0ED
:1000800005900D92AA32B107D9F702D0A3C0B8CF1C
:1000900090E080E80FB6F89480936100909361003F
:1000A0000FBE25D080E091E03AD05ED06BD080E9E1
:1000B0007FD080E07DD066D081E97AD06BD0D82F18
:1000C00070D0C82F63D08D2F3CD0C7FF03C080E213
:1000D00091E002C085E291E022D02FEF89E698E11D
:1000E000215080409040E1F700C00000DFCF109227
:1000F000C50083E38093C400E0ECF0E080818D7F55
:10010000808388E18093C10086E08093C2000895D7
:100110009091C00095FFFCCF8093C60008951F9377
:10012000CF93DF93EC0110E0FE01E10FF11D808120
:10013000882319F0EDDF1F5FF7CFDF91CF911F917B
:100140000895CF93C82F64E639D0805DE1DF2AE0BF
:100150008C2F622F33D0C92F31D080E3890FD8DFA5
:1001600080E38C0FCF91D4CF80E28093B800ECEB8A
:10017000F0E080818460808308958091BC0087FFD7
:10018000FCCF089584EA8093BC00F7CF84E9809384
:10019000BC00089584EC8093BC00EFDF8091BB002D
:1001A000089584E88093BC00E8DF8091BB00089547
:1001B0008093BB0084E88093BC00DFCF991B79E07B
:1001C00004C0991F961708F0961B881F7A95C9F7E7
:0801D00080950895F894FFCF1B
:1001D8000D0A3D3D3D3D202069326320546865721B
:1001E8006D6F6D6574657220203D3D3D3D0D0A00C3
:0A01F8002E350D0A002E300D0A000E
:00000001FF
