:1000000033C0000044C0000042C0000040C00000F7
:100010003EC000003CC000003AC0000038C00000F4
:1000200036C0000034C0000032C0000030C0000004
:100030002EC000002CC000002AC0000028C0000014
:1000400026C0000024C0000022C0000020C0000024
:100050001EC0000039C000001AC0000018C0000017
:1000600016C0000014C0000011241FBECFEFD4E062
:10007000DEBFCDBF11E0A0E0B1E0E0EBF7E002C0F1
:1000800005900D92A831B107D9F7E4D08FC3B8CF4E
:10009000ECE7F0E0808185608083808180648083EC
:1000A000EAE7F0E0808186608083808180688083D9
:1000B000089583B7817F826083BFEAE7F0E08081A3
:1000C0008860808378940895189540E180E090E0FE
:1000D00023B7216023BF889523B72E7F23BF2091AC
:1000E000780030917900820F931F415089F79695DF
:1000F00087959695879508954F925F926F927F921C
:100100008F929F92AF92BF92CF92DF92EF92FF9227
:10011000CF93DF9300D000D0CDB7DEB720E030E042
:1001200048EC52E4C0D222D320E030E048EC52E464
:1001300045D16B017C0120E030E040E251E43ED14A
:100140004B015C0120E030E040E452E4D3D09ED18A
:10015000862FB6D0C501B40102D22B013C0120E0AC
:1001600030E040E452E4C701B601C4D04B015C0169
:1001700020E030E040E251E4C301B20194D29B019F
:10018000AC01C501B401B5D081D1862F99D08EE2E2
:1001900097D020E030E040E251E4C701B60183D2BD
:1001A0004B015C01C701B601DAD12B013C0120E013
:1001B00030E040E452E4C501B4019CD069837A8305
:1001C0008B839C8320E030E040E251E4C301B20124
:1001D0006AD29B01AC0169817A818B819C8189D033
:1001E00055D1862F6DD0C501B401B9D14B015C0149
:1001F00020E030E048EC52E4C701B60154D220E0E0
:1002000030E040E452E476D06B017C0120E030E045
:1002100040E251E4C501B40146D29B01AC01C701E3
:10022000B60167D033D1862F4BD085E191E00F9096
:100230000F900F900F90DF91CF91FF90EF90DF9094
:10024000CF90BF90AF909F908F907F906F905F9076
:100250004F903DC024D080E091E039D019DF29DFF4
:1002600034DFBC0180E090E03DD127EC3BE447E483
:1002700050E419D22DE232EB41EA50E414D220E0EE
:1002800030E040E859E30FD237DF2FE986E891E00C
:10029000215080409040E1F700C00000E1CF109273
:1002A000C5008CE08093C400E0ECF0E080818260C7
:1002B000808388E18093C10086E08093C200089526
:1002C0009091C00095FFFCCF8093C60008951F93C6
:1002D000CF93DF93EC0110E0FE01E10FF11D80816F
:1002E000882319F0EDDF1F5FF7CFDF91CF911F91CA
:1002F00008955058BB27AA270ED084C175D130F07D
:100300007AD120F031F49F3F11F41EF46AC10EF44B
:10031000E095E7FB37C1E92F86D180F3BA17620772
:1003200073078407950718F071F49EF5B5C10EF4B4
:10033000E0950B2EBA2FA02D0B01B90190010C01F5
:10034000CA01A0011124FF27591B99F0593F50F40D
:10035000503E68F11A16F040A22F232F342F442765
:10036000585FF3CF469537952795A795F04053955D
:10037000C9F77EF41F16BA0B620B730B840BBAF02D
:100380009150A1F0FF0FBB1F661F771F881FC2F798
:100390000EC0BA0F621F731F841F48F487957795AC
:1003A0006795B795F7959E3F08F0B3CF9395880F63
:1003B00008F09927EE0F9795879508950CD022C1E4
:1003C0001AD140F011D130F021F45F3F19F0DAC0BA
:1003D000511163C106C127D198F39923C9F355235D
:1003E000B1F3951B550BBB27AA2762177307840728
:1003F00038F09F5F5F4F220F331F441FAA1FA9F3DE
:1004000033D00E2E3AF0E0E830D091505040E695CF
:10041000001CCAF729D0FE2F27D0660F771F881F30
:10042000BB1F261737074807AB07B0E809F0BB0B1F
:10043000802DBF01FF2793585F4F2AF09E3F510543
:1004400068F0A0C02AC15F3FECF3983EDCF38695CC
:1004500077956795B795F7959F5FC9F7880F911DB9
:100460009695879597F90895E1E0660F771F881FA5
:10047000BB1F621773078407BA0720F0621B730B58
:10048000840BBA0BEE1F88F7E0950895D4D088F05E
:100490009F5790F0B92F9927B751A0F0D1F0660F70
:1004A000771F881F991F1AF0BA95C9F712C0B1308B
:1004B00081F0F2D0B1E00895EFC0672F782F882740
:1004C000B85F39F0B93FCCF3869577956795B395CA
:1004D000D9F73EF490958095709561957F4F8F4F39
:1004E0009F4F0895E89409C097FB3EF4909580953E
:1004F000709561957F4F8F4F9F4F9923A9F0F92FEA
:1005000096E9BB279395F695879577956795B79567
:10051000F111F8CFFAF4BB0F11F460FF1BC06F5F4D
:100520007F4F8F4F9F4F16C0882311F096E911C05F
:10053000772321F09EE8872F762F05C0662371F080
:1005400096E8862F70E060E02AF09A95660F771F94
:10055000881FDAF7880F9695879597F9089585D0C3
:1005600080F09F3740F491110EF097C060E070E08A
:1005700080E89FEB089526F41B16611D711D811DF7
:1005800007C021C097F99F6780E870E060E0089598
:10059000882371F4772321F09850872B762F07C09A
:1005A000662311F499270DC09051862B70E060E00E
:1005B0002AF09A95660F771F881FDAF7880F9695AD
:1005C000879597F908959F3F31F0915020F48795D2
:1005D00077956795B795880F911D9695879597F9AB
:1005E00008959FEF80EC089500240A9416161706CC
:1005F00018060906089500240A9412161306140614
:1006000005060895092E0394000C11F4882352F076
:10061000BB0F40F4BF2B11F460FF04C06F5F7F4F2E
:100620008F4F9F4F089557FD9058440F551F59F015
:100630005F3F71F04795880F97FB991F61F09F3FCF
:1006400079F087950895121613061406551FF2CFF8
:100650004695F1DF08C0161617061806991FF1CF48
:1006600086957105610508940895E5DFA0F0BEE761
:10067000B91788F4BB279F3860F41616B11D672F91
:10068000782F8827985FF7CF869577956795B11D66
:1006900093959639C8F30895E894BB276627772782
:1006A000CB0197F908950BD0ADCF9EDF28F0A3DFE3
:1006B00018F0952309F066CF94CF1124EECFB3DF65
:1006C000A0F3959FD1F3950F50E0551F629FF00165
:1006D000729FBB27F00DB11D639FAA27F00DB11DBE
:1006E000AA1F649F6627B00DA11D661F829F222747
:1006F000B00DA11D621F739FB00DA11D621F839FCE
:10070000A00D611D221F749F3327A00D611D231FA3
:10071000849F600D211D822F762F6A2F11249F57F1
:1007200050408AF0E1F088234AF0EE0FFF1FBB1F14
:10073000661F771F881F91505040A9F79E3F5105B3
:1007400070F020CFAACF5F3FECF3983EDCF38695A4
:1007500077956795B795F795E7959F5FC1F7FE2B5E
:10076000880F911D9695879597F9089564DFE0F0BD
:100770009E37D8F09639B8F49E3848F4672F782F12
:100780008827985FF9CF86957795679593959539E2
:10079000D0F3B62FB1706B0F711D811D20F48795BA
:1007A000779567959395F4CE0ECF77CFF894FFCFDA
:1007B0000D0A4469676974616C20566F6C746D65CD
:0807C0007465720D0A0D0A00B8
:00000001FF
